:0400000002EF05F016
:1000080000C019F001C018F00BC017F00CC016F0B2
:100018000DC015F09EAC91D0C4CF01F0006AC3505A
:100028000026000E012200C01AF001C01BF0F6DB0A
:10003800000E046E000E056E200E066E770E076E1B
:1000480068EC04F0000E046E000E056E000E066EDD
:100058007E0E076E65EC04F0000E046E000E056E51
:10006800480E066E850E076E68EC04F000C01CF0A2
:1000780001C01DF002C01EF003C01FF01C0E206E50
:10008800000E216E20C0E9FF21C0EAFFEECF32F05A
:10009800FBEC04F0020E0B6E040E0C6EBA0E0D6E25
:1000A8000D2EFED70C2EFCD70B2EFAD70000010E12
:1000B8002024E96E000E2120EA6EEECF32F0FBEC30
:1000C80004F0020E0B6E040E0C6EBA0E0D6E0D2EA1
:1000D800FED70C2EFCD70B2EFAD70000020E2024D8
:1000E800E96E000E2120EA6EEECF32F0FBEC04F050
:1000F800020E0B6E040E0C6EBA0E0D6E0D2EFED790
:100108000C2EFCD70B2EFAD70000030E2024E96E24
:10011800000E2120EA6EEECF32F0FBEC04F0020E66
:100128000B6E040E0C6EBA0E0D6E0D2EFED70C2E35
:10013800FCD70B2EFAD700009E9AF2A406D0480EE0
:10014800D76EE50ED66EC282F29419C000F018C0C0
:1001580001F017C00BF016C00CF015C00DF011001F
:080168000AAE029E000E120017
:100170000B840BAEC3EF00F0010E036E026A016A3E
:0A018000006A0A360232FF0E120078
:10018A000B820BAECFEF00F00368026801680068CB
:08019A000A360232FF0E1200CA
:0E01A200026A016A006A086A036A000E12000F
:1001B0000CB01AEF01F00CA2C0EF01F00E6A000EB5
:1001C000026431EF01F0F00E0214D8A4FCEF00F04D
:1001D000023A01380F0B02260138F00B016E00388D
:1001E0000F0B01260038F00B006E08380F0B0026AD
:1001F0000838F00B086E0E84D89002BE15EF01F09F
:1002000008360036013602360E2A02BE15EF01F01E
:1002100008360036013602360E2A02BE15EF01F00E
:1002200008360036013602360E2A0E500364B6EF49
:1002300001F0035E0BBC08AEBBEF01F0D880800E6E
:1002400008640030000E002201220222D8A0BBEF79
:1002500001F0023201320032034AC0EF01F0BBEF7D
:1002600001F001C002F000C001F008C000F0086A0F
:10027000000E0E86026468EF01F0F00E0214D8A49E
:1002800050EF01F0023A01380F0B02260138F00B53
:10029000016E00380F0B01260038F00B006E0E8443
:1002A000D89002BE15EF01F00036013602360E2A54
:1002B00002BE15EF01F00036013602360E2A02BEEC
:1002C00015EF01F00036013602360E2A15EF01F067
:1002D00001C002F000C001F0006A000E0E960E8808
:1002E000026495EF01F0F00E0214D8A480EF01F043
:1002F000023A01380F0B02260138F00B016E0E8412
:10030000D89002BE15EF01F0013602360E2A02BE69
:1003100015EF01F0013602360E2A02BE15EF01F08C
:10032000013602360E2A15EF01F001C002F0016A13
:10033000000E0E860264C5EF01F0F00E0214D8A480
:10034000A4EF01F0023A0E84D89002BE15EF01F03E
:1003500002360E2A02BE15EF01F002360E2A02BE48
:1003600015EF01F002360E2A15EF01F0010E0C6EAA
:10037000FFDEC8EF01F0020E0C6EF6DEC8EF01F0F2
:10038000040E0C6E02DFC8EF01F0080E0C6E09DFE0
:02039000120059
:100392000C6A0E6A0250D8A4E2EF01F001C002F02A
:1003A20000C001F0006A0E860250D8A4E2EF01F00C
:1003B20001C002F0016A0E960E880250D8B4F4EF22
:1003C20001F00E50035ED8A4D8A0F9EF01F0D89046
:1003D20002BEFEEF01F0003601360236032EE9EFCF
:1003E20001F0F9EF01F0010E0C6EDADE01EF02F01E
:1003F200020E0C6EBCDE01EF02F0040E0C6EB3DED8
:020402001200E6
:10040400025006180E6E086A096A0B6A03500764E4
:10041400F5EF02F006500A6E068E028E03500B6E44
:100424000750036E000E0B6445EF02F00B50075E9D
:10043400D8B4E6EF02F0070E0764B4EF02F0075EEB
:1004440000C008F001C000F002C001F0026A074ECB
:10045400E6EF02F0076489EF02F0075E00C008F0DF
:1004640001C000F0016A074EE6EF02F0076467EF8F
:1004740002F0075E00C008F0006A074EE6EF02F0E3
:1004840007644EEF02F00AC002F005C001F004C098
:1004940000F0086A0FEF04F0030E076459EF02F04E
:1004A400075E08380F0B086E074EE6EF02F0D8908F
:1004B4000832074EE6EF02F0D8900832074EE6EF16
:1004C40002F0D8900832E6EF02F0030E076478EFEA
:1004D40002F0075E08380F0B086E0038F00B082690
:1004E40000380F0B006E074EE6EF02F0D890003292
:1004F4000832074EE6EF02F0D89000320832074E79
:10050400E6EF02F0D89000320832E6EF02F0030E74
:100514000764A0EF02F0075E08380F0B086E00387E
:10052400F00B082600380F0B006E0138F00B002684
:1005340001380F0B016E074EE6EF02F0D89001323E
:1005440000320832074EE6EF02F0D8900132003252
:100554000832074EE6EF02F0D8900132003208323A
:10056400E6EF02F0030E0764D1EF02F0075E0838ED
:100574000F0B086E0038F00B082600380F0B006EC6
:100584000138F00B002601380F0B016E0238F00B16
:10059400012602380F0B026E074EE6EF02F0D890E8
:1005A4000232013200320832074EE6EF02F0D890F0
:1005B4000232013200320832074EE6EF02F0D890E0
:1005C4000232013200320832096A000E0EAEDAEF4E
:1005D40003F0081E001E011E021E082A002201222A
:1005E4000222DAEF03F00750D8A4FBEF02F00FEF7A
:1005F40004F0096A02C00AF0028E068E0750035CFA
:10060400076ED8B4CDEF03F0070E07649BEF03F039
:10061400075E0450096E0550046E0650056E066AA6
:10062400074ECDEF03F0070E076470EF03F0075E8B
:100634000450096E0550046E056A074ECDEF03F0B1
:10064400070E07644EEF03F0075E0450096E046A58
:10065400074ECDEF03F0070E076435EF03F00AC031
:1006640002F00FEF04F0030E076440EF03F0075E9F
:1006740009380F0B096E074ECDEF03F0D8900932FD
:10068400074ECDEF03F0D8900932074ECDEF03F0BB
:10069400D8900932CDEF03F0030E07645FEF03F047
:1006A400075E09380F0B096E0438F00B092604386D
:1006B4000F0B046E074ECDEF03F0D89004320932CD
:1006C400074ECDEF03F0D89004320932074ECDEF38
:1006D40003F0D89004320932CDEF03F0030E07641F
:1006E40087EF03F0075E09380F0B096E0438F00B2F
:1006F400092604380F0B046E0538F00B0426053860
:100704000F0B056E074ECDEF03F0D890053204327F
:100714000932074ECDEF03F0D89005320432093286
:10072400074ECDEF03F0D890053204320932CDEFF5
:1007340003F0030E0764B8EF03F0075E09380F0BEC
:10074400096E0438F00B092604380F0B046E0538C3
:10075400F00B042605380F0B056E0638F00B052642
:1007640006380F0B066E074ECDEF03F0D890063215
:10077400053204320932074ECDEF03F0D890063229
:10078400053204320932074ECDEF03F0D890063219
:10079400053204320932086A000E0EAEDAEF03F0B5
:1007A400091E041E051E061E092A0422052206220D
:1007B4000950082604500022055001220650022246
:1007C4000EBEF1EF03F0D8A000EF04F002320132C4
:1007D40000320832033E00EF04F00AEF04F0D8B010
:1007E40005EF04F0000E081E001E011E021E082A5A
:1007F4000022012202220A7E05EF04F0010E0C6E93
:10080400D5DC11EF04F0020E0C6ED0DC11EF04F015
:10081400040E0C6EB8DC11EF04F0000E0C6E120026
:1008240000C008F00150006E016A026A036A0B6A94
:100834000C6A016A026A036A960E036E0A6A00AEC3
:100844002AEF04F0081E001E082AD8B4002A0A8ED3
:1008540000C001F008C000F0086A026A98DD1200C6
:100864000900F5CFE6FF0006FBE10106F9E11200FD
:10087400F60E266E090E276E320E286E000E296EB5
:10088400FF0E2A6EFF0E2B6E000E2C6E000E2D6EC8
:10089400FF0E2E6EFF0E2F6E000E306E000E316EA8
:1008A400FF0E226EFF0E236E000E246E000E256EC8
:1008B400AC8A900EAB6E948E949C9EAA03D0AECF5D
:0608C40000F0FBD712005A
:0608CA00067E9BDD12001A
:1008D000086A096A000E07620364EDEF04F0025033
:1008E00006180A6E075003267E0ED8A07EEF04F08D
:1008F000035ED8B0F2EF04F082EF04F0035ED8A0FC
:10090000F7EF04F0028E068E02C00EF001C00BF06D
:1009100000C00DF000500402F4CF0CF001500502AD
:10092000F4CF00F0F3CF08F00402F3500C26F4509B
:100930000822000E00220D500502F3500C26F45040
:100940000822000E002202500402F3500826F45040
:10095000002202500502016A000E0122F350002617
:10096000F45001220D500602F3500826F4500022E4
:10097000026A000E012202220B500602F3500026EA
:10098000F4500122000E02220E500602F3500126FE
:10099000F450022202BED5EF04F0083600360136CC
:1009A00002360306D8B4F7EF04F0E8EF04F0D8807D
:1009B000800E08640030000E002201220222D8A01E
:1009C000E8EF04F0023201320032034AF2EF04F0A1
:1009D0000AAE029E000EFAEF04F0010ED1EC00F018
:1009E000FAEF04F0020EC5EC00F0FAEF04F0040E8A
:0609F000B8EC00F012005B
:0E09F600ACB202D00000FCD732C0ADFF120040
:100A04009280010EC26EC16A830EC06E850ED56ED1
:100A1400F294F28A9E9C9D8CF28CF28EB886B06A17
:100A2400CF0EAF6EAC8424DF040E0B6E0C0E0C6E76
:100A3400330E0D6E0D2EFED70C2EFCD70B2EFAD7CF
:100A440000000000480ED76EE50ED66EFFD7FFD724
:020000040030CA
:0E000000000C1F1EFF8381FF0FC00FE00F409A
:00000001FF
