:0400000018EF05F000
:1000080000C019F001C018F00BC017F00CC016F0B2
:100018000DC015F09EAA31D01A5043244E6E000E22
:1000280044204F6E97DA4EC0E1FF4FC0E2FF00C098
:10003800E6FF1A2A1A5003081FE2010E5F6E4ED817
:100048003FC050F040C051F041C052F042C053F0A0
:10005800310E546E000E556ED8DA010E506E010E38
:10006800516E310E526E000E536E92DA1B0E506EA8
:10007800000E516E78DA1A6A9E9A19C000F018C0FC
:1000880001F017C00BF016C00CF015C00DF01100F0
:100098000F0E0C6E470E0D6E0D2EFED70C2EFCD7D4
:0600A80000000000120040
:0600AE000000000012003A
:0A00B400210E0D6E0D2EFED7120076
:1000BE000B820BAE69EF00F00368026801680068FE
:0800CE000A360232FF0E120097
:0E00D600026A016A006A086A036A000E1200DC
:1000E4005FBE02D0819E01D0818E5FBC02D0819C14
:1000F40001D0818C5FBA02D0819A01D0818A5FB825
:1001040002D0819801D0818845B002D0818401D089
:1001140081948186CADF81965FB602D0819E01D028
:10012400818E5FB402D0819C01D0818C5FB202D0F9
:10013400819A01D0818A5FB002D0819801D08188F0
:1001440045B002D0818401D081948186AEDF81964E
:0C01540045A002D09FDF01D0ABDF1200FD
:100160000B840BAEBBEF00F0010E036E026A016A56
:0A017000006A0A360232FF0E120088
:10017A0061C004F062C005F004C002F005C003F0DB
:10018A00044A052A63C000F064C001F00001634B11
:10019A00642B00C0E9FF01C0EAFF02C0E1FF03C00F
:1001AA00E2FFEECFE6FF02C0E9FF03C0EAFFEE522C
:0E01BA0001E0E2D761C000F062C001F0120067
:1001C800086A096A000E0762036469EF01F00250C9
:1001D80006180A6E075003267E0ED8A0FAEF00F024
:1001E800035ED8B06DEF01F0FEEF00F0035ED8A01B
:1001F80071EF01F0028E068E02C00EF001C00BF006
:1002080000C00DF000500402F4CF0CF001500502BC
:10021800F4CF00F0F3CF08F00402F3500C26F450AA
:100228000822000E00220D500502F3500C26F4504F
:100238000822000E002202500402F3500826F4504F
:10024800002202500502016A000E0122F350002626
:10025800F45001220D500602F3500826F4500022F3
:10026800026A000E012202220B500602F3500026F9
:10027800F4500122000E02220E500602F35001260D
:10028800F450022202BE51EF01F008360036013662
:1002980002360306D8B471EF01F064EF01F0D8809C
:1002A800800E08640030000E002201220222D8A02D
:1002B80064EF01F0023201320032034A6DEF01F0BF
:1002C8000AAE029E000E73EF01F0010E00DF73EF1D
:1002D80001F0020EF0DE73EF01F0040E3DDF1200B4
:1002E8000A6A0350D8A40A800750D8A40A820A5080
:1002F800D8B4D7EF01F0030AD8B490EF01F00AB0F0
:100308008BEF01F006AED5EF01F0D3EF01F002AEAE
:10031800D3EF01F0D5EF01F00250800B0A6E029E78
:100328000650800B069E0A18D8B4A1EF01F00A50B7
:10033800D8B4D3EF01F0D5EF01F00750035CD8B47F
:10034800ABEF01F0D8A0C7EF01F0CDEF01F00650F8
:10035800025CD8B4B5EF01F0D8A0C7EF01F0CDEF3B
:1003680001F00550015CD8B4BFEF01F0D8A0C7EF89
:1003780001F0CDEF01F00450005CD8B4D7EF01F0E4
:10038800D8B0CDEF01F00A52D8B4D5EF01F0D3EFD1
:1003980001F00A52D8B4D3EF01F0D5EF01F0D880BC
:0E03A8001200D8901200D880D88412001200E3
:1003B6000D6A086A0050D8B4000C04180A6E0ABE0A
:1003C6000D1E0B6A04AE02D0041E042A00AE02D033
:1003D600001E002A005004100A6E0ABE1FD00450E8
:1003E600085E003600340836045008260036060E2D
:1003F6000C6E00340836045000B0085E00A00826D3
:1004060000360C2EF6D700A008260BB015D00DAE80
:10041600000C001E002A081E082A000C04AE09D093
:1004260000BE04D00050086E006AF1D7006A002AA8
:10043600000C001E0B2AD3D7082A0450085CD8A447
:0E044600E6D7086A002A00AEE2D7FF0C1200CB
:0C04540045905EC05FF044DE4580120061
:10046000FF0E4A6EFF0E4B6EFF0E4C6EFF0E4D6E72
:100470005C0E466E050E476E000E486E000E496E0D
:10048000FF0E2D6EFF0E2E6E000E2F6E000E306EC4
:10049000FF0E296EFF0E2A6E000E2B6E000E2C6EC4
:1004A000AC8A900EAB6E948E949C9EAA03D0AECF75
:0604B00000F0FBD7120072
:1004B600939693949398939A939C939E8196819402
:1004C600819E819C819A8198E4DDE3DDE2DD818A6B
:1004D60081888186E9DD8196DCDD8186E5DD819690
:1004E600D8DD8186E1DD8196D4DD81988186DCDDEB
:1004F6008196CFDD8186D8DD8196819A818E81862F
:10050600D3DD8196C6DD819E81888186CDDD81968B
:1005160081988186C9DD8196BCDD8186C5DD81969F
:1005260081888186C1DD8196B4DD81988186BCDDB6
:100536008196818E818C818A81888186B5DD8196BE
:06054600A8DD4580120053
:10054C000900F5CFE6FF0006FBE10106F9E1120018
:10055C00AECF01F0ABA202D0AB98AB8801C000F0DB
:02056C0012007B
:10056E00526A52505024E96E000E5120EA6EEE523D
:10057E000BE052505024E96E000E5120EA6EEECF81
:0A058E005EF061DF522AEDD7120083
:100598000FD0800E506E19D0C00E506E16D0940E2B
:1005A800506E13D0D40E506E10D0800E506E0DD0F9
:1005B8005050010AEEE05050020AEEE05050030A93
:1005C800EEE05050040AEEE0F0D75104006E5050AF
:1005D800002600C050F000C05FF080DD4590546AEE
:1005E80054505224E96E000E5320EA6EEE520BE08E
:1005F80054505224E96E000E5320EA6EEECF5EF09E
:0A06080025DF542AEDD745801200CB
:100612005C6A5D6A50C058F051C059F052C05AF03D
:1006220053C05BF05B50FF0A08E15A50FF0A05E134
:100632005950FF0A02E15850FF0A0DE154C061F01F
:1006420055C062F01F0E0001636F000E646F94DDEF
:10065200030E006EEBD1010E566E5AAE0ED0800E16
:100662005A18006E00C05AF0562A54C0E1FF55C015
:10067200E2FF2D0EE66E544A552A000E006E5B18FC
:1006820008E100505A1805E10050591802E158508B
:10069200000A0CE1000154C061F055C062F0270E5F
:1006A200636F000E646F68DD006AC0D15B50FF0AA1
:1006B20008E15A50000A05E15950000A02E1585077
:1006C200000A0DE1000154C061F055C062F0230E32
:1006D200636F000E646F50DD56C000F0A7D1000EAC
:1006E200046E000E056E000E066E7F0E076E58C079
:1006F20000F059C001F05AC002F05BC003F0F3DD14
:10070200010ED8B0000E006E00521BE058C000F07F
:1007120059C001F05AC002F05BC003F0000E046E33
:10072200000E056E200E066E820E076E4CDD00C0B6
:1007320058F001C059F002C05AF003C05BF05D06E8
:10074200CED7000E046E000E056E200E066E820ECF
:10075200076E58C000F059C001F05AC002F05BC0E9
:1007620003F0C1DD000ED8B0010E006E00521BE096
:1007720058C000F059C001F05AC002F05BC003F04B
:10078200CD0E046ECC0E056E4C0E066E7B0E076E01
:100792001ADD00C058F001C059F002C05AF003C07F
:1007A2005BF05D2ACED7FF0E5814086EFF0E591467
:1007B200096E7F0E5A140A6E000E5B140B6E08C08F
:1007C20004F009C005F00AC006F00BC007F00436B9
:1007D2000490053606360736000E5814006E000ED9
:1007E2005914016E000E5A14026EFF0E5B14036E52
:1007F20000C058F001C059F002C05AF003C05BF0CB
:1008020004505810006E05505910016E06505A10CF
:10081200026E07505B10036E00C058F001C059F021
:1008220002C05AF003C05BF07F0E5B5C006E00C03A
:1008320057F0010E5B6E00C004F058C000F059C0C2
:1008420001F05AC002F05BC003F0045007E000362A
:100852000090013602360336FF0FF8D700C058F079
:1008620001C059F002C05AF003C05BF054C0E1FF6E
:1008720055C0E2FF5B50300FE66E544A552A800E97
:100882005D18006E800E010A005C08E3800E060A05
:10089200006E800E5D18005C01E30AD054C0E1FFD7
:1008A20055C0E2FF2E0EE66E544A552A010E5C6ECA
:1008B200060E576E5750000A54E05B6A58C000F0AB
:1008C20059C001F05AC002F05BC003F0003600903C
:1008D2000136023603360036009001360236033600
:1008E20058500026595001225A5002225B500322CE
:1008F20000C058F001C059F002C05AF003C05BF0CA
:1009020058C000F059C001F05AC002F05BC003F0B9
:100912000036009001360236033600C058F001C09E
:1009220059F002C05AF003C05BF054C0E1FF55C059
:10093200E2FF5B50300FE66E544A552A5C50000AC3
:100942000EE15D065D50000A0AE154C0E1FF55C0A8
:10095200E2FF2E0EE66E544A552A010E5C6E5706D1
:10096200A9D7FF0E5424E96EFF0E5520EA6EEE5011
:10097200300A05E1010E545E000E555AF2D7FF0E01
:100982005424E96EFF0E5520EA6EEE502E0A04E161
:10099200010E545E000E555A5D50000A41E054C0EB
:1009A200E1FF55C0E2FF650EE66E544A552A800EFD
:1009B2005D18006E800E000A005C0BE254C0E1FF7D
:1009C20055C0E2FF2D0EE66E544A552A5D500008CE
:1009D2005D6E5DC057F0800E090A006E800E5D18D4
:1009E200005C0EE20A0E046E57C000F0E3DC54C055
:1009F200E1FF55C0E2FF0050300FE66E544A552A1F
:100A02000A0E046E57C000F0D5DC08C000F054C0D6
:100A1200E1FF55C0E2FF0050300FE66E544A552AFE
:0E0A220054C0E1FF55C0E2FFE66A006A120010
:100A300045EC05F00F0EC16E070EB46E3CDDB886B6
:100A4000B06ACF0EAF6EAC840BDD040E0B6E0C0ED5
:100A50000C6E330E0D6E0D2EFED70C2EFCD70B2E0A
:100A6000FAD7000000003F0E436E000E446E9E9ABF
:0A0A70009D8AF28CF28EFFD7FFD7AB
:100A8A0010EE1AF00F0E006E010E016E7A0EF66E5F
:0E0A9A000A0EF76E000EF86EA6EC02F01200C7
:010A7A00007B
:040A7B00202A4300EA
:040A7F004E614E0076
:040A8300494E460092
:020A870030003D
:020000040030CA
:0E000000000C1F1EFF8381FF0FC00FE00F409A
:00000001FF
