:0400000066EF07F0B0
:1000080000C018F001C017F00CC016F00DC015F0B4
:10001800F2A29CD0D6CF41F0000E426ED7CF01F0AD
:10002800006A00504124026E01504220036E02C053
:1000380041F003C042F0D76AD66A0350451802E17E
:1000480044500218D8B480D021C000F0C6DB19C0D3
:1000580004F01AC005F01BC006F01CC007F092DAC5
:1000680000C04AF001C04BF002C04CF003C04DF094
:100078004AC046F04BC047F04CC048F04DC049F06C
:1000880041C000F042C001F06CEC04F01DC004F067
:100098001EC005F01FC006F020C007F073DA4AC082
:1000A80004F04BC005F04CC006F04DC007F053EC0F
:1000B80005F000C02BF001C02CF002C02DF003C0E9
:1000C8002EF000C004F001C005F002C006F003C025
:1000D80007F0000E006E000E016E000E026E7F0E1D
:1000E800036E80EC04F0000E046E000E056E700EB8
:1000F800066E840E076E46DA00C03DF001C03EF081
:1001080002C03FF003C040F076DB00C04EF001C0F3
:100118004FF02F0E506E000E516EC4DA010E566E5F
:1001280059D8010E4E6E010E4F6E2F0E506E000EF6
:10013800516EEBD9220E4E6E000E4F6E3EEC05F05E
:1001480041C044F042C045F0216AF292F2A402D0C4
:10015800212AF29418C000F017C001F016C00CF064
:0601680015C00DF01100AE
:10016E000F0E0C6E470E0D6E0D2EFED70C2EFCD7FD
:06017E0000000000120069
:0601840000000000120063
:0A018A00210E0D6E0D2EFED712009F
:100194000B840BAED5EF00F0010E036E026A016A08
:0A01A400006A0A360232FF0E120054
:0801AE000AAE029E000E1200D1
:0E01B600026A016A006A086A036A000E1200FB
:1001C4000B820BAEECEF00F0036802680168006874
:0801D4000A360232FF0E120090
:1001DC0056BE02D0809001D0808056BC02D0829E48
:1001EC0001D0828E56BA02D0829C01D0828C56B835
:1001FC0002D0829401D0828443B002D0828001D09C
:10020C0082908282B9DF829256B602D0809001D061
:10021C00808056B402D0829E01D0828E56B202D01B
:10022C00829C01D0828C56B002D0829401D0828400
:10023C0043B002D0828001D0829082829DDF829274
:0C024C0043A002D08EDF01D09ADF120028
:080258000B6A0B86FF0E120079
:100260000C6A0E6A0250D8A449EF01F001C002F0F6
:1002700000C001F0006A0E860250D8A449EF01F0D8
:1002800001C002F0016A0E960E880250D8B45BEFEE
:1002900001F00E50035ED8A4D8A060EF01F0D89012
:1002A00002BE65EF01F0003601360236032E50EF34
:1002B00001F060EF01F0010E0C6E7DDF68EF01F0E0
:1002C000020E0C6E67DF68EF01F0040E0C6E6FDF3C
:0202D00012001A
:0C02D200439055C056F081DF43801200BD
:1002DE00086A096A100E0C6E01340836093604508D
:1002EE00085E0550D8A0053C095ED8B007D0045072
:1002FE0008260550D8B0053C0926D89000360136A0
:06030E000C2EEAD71200DC
:100314000CB0CCEF01F00CA272EF02F00E6A000EEA
:100324000264E3EF01F0F00E0214D8A4AEEF01F082
:10033400023A01380F0B02260138F00B016E003827
:100344000F0B01260038F00B006E08380F0B002647
:100354000838F00B086E0E84D89002BEC7EF01F087
:1003640008360036013602360E2A02BEC7EF01F007
:1003740008360036013602360E2A02BEC7EF01F0F7
:1003840008360036013602360E2A0E50036468EF32
:1003940002F0035E0BBC08AE6DEF02F0D880800E55
:1003A40008640030000E002201220222D8A06DEF62
:1003B40002F0023201320032034A72EF02F06DEFB2
:1003C40002F001C002F000C001F008C000F0086AA9
:1003D400000E0E8602641AEF02F0F00E0214D8A486
:1003E40002EF02F0023A01380F0B02260138F00B3B
:1003F400016E00380F0B01260038F00B006E0E84DE
:10040400D89002BEC7EF01F00036013602360E2A3C
:1004140002BEC7EF01F00036013602360E2A02BED4
:10042400C7EF01F00036013602360E2AC7EF01F09D
:1004340001C002F000C001F0006A000E0E960E88A2
:10044400026447EF02F0F00E0214D8A432EF02F077
:10045400023A01380F0B02260138F00B016E0E84AC
:10046400D89002BEC7EF01F0013602360E2A02BE52
:10047400C7EF01F0013602360E2A02BEC7EF01F0C3
:10048400013602360E2AC7EF01F001C002F0016AFC
:10049400000E0E86026477EF02F0F00E0214D8A468
:1004A40056EF02F0023A0E84D89002BEC7EF01F074
:1004B40002360E2A02BEC7EF01F002360E2A02BE31
:1004C400C7EF01F002360E2AC7EF01F0010E0C6EE1
:1004D4005FDE7AEF02F0020E0C6E67DE7AEF02F056
:1004E400040E0C6E6DDE7AEF02F0080E0C6E61DE07
:0204F4001200F4
:1004F6000B800BAE87EF02F0026A0AAEFF0E026EA9
:0C050600016E006E0A360232FF0E120079
:100512000FD0800E4E6E19D0C00E4E6E16D0940EB5
:100522004E6E13D0D40E4E6E10D0800E4E6E0DD085
:100532004E50010AEEE04E50020AEEE04E50030A1F
:10054200EEE04E50040AEEE0F0D74F04006E4E503B
:10055200002600C04EF000C056F03FDE4390526AC3
:1005620052505024E96E000E5120EA6EEE520BE01A
:1005720052505024E96E000E5120EA6EEECF55F033
:0A058200A7DE522AEDD743801200D5
:10058C00086A096A000E076203644BEF03F002501D
:10059C0006180A6E075003267E0ED8A0DCEF02F078
:1005AC00035ED8B04FEF03F0E0EF02F0035ED8A08B
:1005BC0053EF03F0028E068E02C00EF001C00BF05A
:1005CC0000C00DF000500402F4CF0CF001500502F5
:1005DC00F4CF00F0F3CF08F00402F3500C26F450E3
:1005EC000822000E00220D500502F3500C26F45088
:1005FC000822000E002202500402F3500826F45088
:10060C00002202500502016A000E0122F35000265E
:10061C00F45001220D500602F3500826F45000222B
:10062C00026A000E012202220B500602F350002631
:10063C00F4500122000E02220E500602F350012645
:10064C00F450022202BE33EF03F0083600360136B6
:10065C0002360306D8B453EF03F046EF03F0D8800C
:10066C00800E08640030000E002201220222D8A065
:10067C0046EF03F0023201320032034A4FEF03F02F
:10068C000AAE029E000E55EF03F0010E8EDD55EF03
:10069C0003F0020E91DD55EF03F0040E75DD120030
:1006AC00526A050E525C0AE252505024E16E000E62
:1006BC005120E26E200EE66E522AF3D7525050248F
:1006CC00E16E000E5120E26EE66A52065250502442
:1006DC00536E000E5120546E0A0E046E000E056E01
:1006EC004EC000F04FC001F0F4DD08C000F009C0AE
:1006FC0001F0300E002653C0E1FF54C0E2FF00C0F1
:10070C00E6FF0A0E046E000E056E4EC000F04FC0E0
:10071C0001F0DFDD00C04EF001C04FF0000E0118FB
:10072C0002E1000E001801E102D05206CFD71200F0
:10073C000900F5CFE6FF0006FBE10106F9E1120026
:10074C00949294909494949C949E92908292829081
:10075C008090829E829C829404DD03DD02DD828C7B
:10076C008284828209DD8292FCDC828205DD8292A7
:10077C00F8DC828201DD8292F4DC82948282FCDCE1
:10078C008292EFDC8282F8DC8292829C8080828270
:10079C00F3DC8292E6DC809082848282EDDC8292B1
:1007AC0082948282E9DC8292DCDC8282E5DC8292B9
:1007BC0082848282E1DC8292D4DC82948282DCDCD0
:1007CC0082928080828E828C82848282D5DC82921C
:0607DC00C8DC438012009E
:1007E20000C008F00B6A0C6A9E0E036E0A6A026A67
:0C07F200016A006A020E0C6E8CDD120021
:1007FE000B6A0C6A0A6A0350D8B449EF04F0028EF1
:10080E008E0E035E03BE11EF04F0D8B411EF04F0A8
:10081E004DEF04F0036C080E035CD8A028EF04F033
:10082E00036E013602C001F0026A080E035CD8A006
:10083E0028EF04F00136016A0350D8A4D89032EFA5
:10084E0004F00350D8B432EF04F0D89002320132E3
:10085E00032E2CEF04F00BBC01A03FEF04F0D8A048
:10086E003FEF04F0012AD8B4022A02BE5CEF04F076
:10087E000AAE61EF04F0021E011E012AD8B4022A4C
:10088E0061EF04F0026A016A61EF04F00B800BAEB7
:10089E0065EF04F0026A0AAE65EF04F0FF0E026E19
:1008AE00016E0A36023265EF04F0010E0C6E1CDE8C
:1008BE0067EF04F0000E0C6E67EF04F0FF0E0C6E87
:0A08CE000150006E0250016E12008E
:1008D8000050086E0150006E016A026A036A0B6AD2
:1008E8000C6A960E036E0A6A00C001F008C000F098
:0808F800086A026AB1DC12007B
:100900000450000A12E10550000A0FE10650000AE7
:100910000CE10750000A09E1FF0E006EFF0E016EA8
:100920007F0E026EFF0E036EA8D0086A096A075098
:10093000D8B42BEF05F00350D8B430EF05F00250D7
:1009400006180A6E028E068E0E6A02C008F001C0FA
:100950000CF000C00DF004500D5E0550D8A0053C11
:100960000C5E0650D8A0063C085E086A0C6A0D6A48
:10097000D8A0C2EF04F0D89002320132003208321F
:10098000010E0E6E0750035ED8A0CFEF04F07E0E6E
:100990000E240326D8B035EF05F0D5EF04F07E0E17
:1009A0000E240326D8A03AEF05F0180E0B6E0D3674
:1009B0000C3608360036013602360E360450005E1C
:1009C0000550D8A0053C015E0650D8A0063C025E4A
:1009D00006340E120EA0F0EF04F00D80FBEF04F0D1
:1009E000045000260550D8B0053C01260650D8B06A
:1009F000062802260D900B2ED7EF04F021EF05F00C
:100A0000D8900036013602360E360450005E05508E
:100A1000D8A0053C015E0650D8A0063C025E063414
:100A20000E10010B0D26D8B00C2AD8B4082AD8A471
:100A300021EF05F008320C320D32032AD8B435EF1D
:100A400005F00AAE089E0850026E0C50016E0D5063
:100A5000006E3DEF05F0010E2CEC01F03DEF05F0CE
:100A6000020EDBEC00F03DEF05F0040EE2EC00F0CE
:0C0A70003DEF05F0080ECAEC00F012008B
:100A7C00506A50504E24E96E000E4F20EA6EEE5232
:100A8C000BE050504E24E96E000E4F20EA6EEECF74
:0A0A9C0055F019DC502AEDD71200C6
:100AA600025006180E6E086A096A0B6A035007643C
:100AB60046EF06F006500A6E068E028E03500B6E47
:100AC6000750036E000E0B6496EF05F00B50075EA1
:100AD600D8B437EF06F0070E076405EF06F0075E99
:100AE60000C008F001C000F002C001F0026A074E23
:100AF60037EF06F00764DAEF05F0075E00C008F08E
:100B060001C000F0016A074E37EF06F00764B8EF40
:100B160005F0075E00C008F0006A074E37EF06F0E2
:100B260007649FEF05F00AC002F005C001F004C09B
:100B360000F0086A63EF07F0030E0764AAEF05F0FA
:100B4600075E08380F0B086E074E37EF06F0D89091
:100B56000832074E37EF06F0D8900832074E37EFC7
:100B660006F0D890083237EF06F0030E0764C9EF97
:100B760005F0075E08380F0B086E0038F00B0826E4
:100B860000380F0B006E074E37EF06F0D890003294
:100B96000832074E37EF06F0D89000320832074E7B
:100BA60037EF06F0D8900032083237EF06F0030E22
:100BB6000764F1EF05F0075E08380F0B086E003882
:100BC600F00B082600380F0B006E0138F00B0026DC
:100BD60001380F0B016E074E37EF06F0D890013241
:100BE60000320832074E37EF06F0D8900132003255
:100BF6000832074E37EF06F0D8900132003208323D
:100C060037EF06F0030E076422EF06F0075E08389A
:100C16000F0B086E0038F00B082600380F0B006E1D
:100C26000138F00B002601380F0B016E0238F00B6D
:100C3600012602380F0B026E074E37EF06F0D890EA
:100C46000232013200320832074E37EF06F0D890F2
:100C56000232013200320832074E37EF06F0D890E2
:100C66000232013200320832096A000E0EAE2BEF54
:100C760007F0081E001E011E021E082A002201227D
:100C860002222BEF07F00750D8A44CEF06F063EFD3
:100C960007F0096A02C00AF0028E068E0750035C4E
:100CA600076ED8B41EEF07F0070E0764ECEF06F0E8
:100CB600075E0450096E0550046E0650056E066AFE
:100CC600074E1EEF07F0070E0764C1EF06F0075E3A
:100CD6000450096E0550046E056A074E1EEF07F0B4
:100CE600070E07649FEF06F0075E0450096E046A5C
:100CF600074E1EEF07F0070E076486EF06F00AC0E0
:100D060002F063EF07F0030E076491EF06F0075E4B
:100D160009380F0B096E074E1EEF07F0D8900932FF
:100D2600074E1EEF07F0D8900932074E1EEF07F068
:100D3600D89009321EEF07F0030E0764B0EF06F0F5
:100D4600075E09380F0B096E0438F00B09260438C4
:100D56000F0B046E074E1EEF07F0D89004320932CF
:100D6600074E1EEF07F0D89004320932074E1EEFE9
:100D760007F0D890043209321EEF07F0030E07641D
:100D8600D8EF06F0075E09380F0B096E0438F00B32
:100D9600092604380F0B046E0538F00B04260538B7
:100DA6000F0B056E074E1EEF07F0D8900532043282
:100DB6000932074E1EEF07F0D89005320432093289
:100DC600074E1EEF07F0D8900532043209321EEFA7
:100DD60007F0030E076409EF07F0075E09380F0BEB
:100DE600096E0438F00B092604380F0B046E05381B
:100DF600F00B042605380F0B056E0638F00B05269A
:100E060006380F0B066E074E1EEF07F0D890063217
:100E1600053204320932074E1EEF07F0D89006322B
:100E2600053204320932074E1EEF07F0D89006321B
:100E3600053204320932086A000E0EAE2BEF07F0B7
:100E4600091E041E051E061E092A04220522062264
:100E5600095008260450002205500122065002229D
:100E66000EBE42EF07F0D8A051EF07F00232013272
:100E760000320832033E51EF07F05DEF07F0D8B0BD
:100E860057EF07F0000E081E001E011E021E082A5C
:100E96000022012202220A7E57EF07F0010E0C6E95
:100EA6008AEC01F065EF07F0020E0C6E8AEC01F099
:100EB60065EF07F0040E0C6EE2EC00F065EF07F04C
:060EC600000E0C6E12008C
:100ECC0084EC07F093803CDC0F0EC16E070EB46E01
:100EDC00F292F288F19EF18CF28E850ED56EF29420
:0A0EEC00F28AD76AD66AFFD7FFD753
:100F080010EE19F0120E006E010E016EF60EF66E5E
:0E0F18000E0EF76E000EF86E9EEC03F0120047
:040EF600BD3706807E
:040EFA00BD3706708A
:010EFE0000F3
:090EFF00206C61742F6D696E0016
:020000040030CA
:0E000000000C1F1EFF8381FF0FC00FE00F409A
:00000001FF
